:020000040000FA
:1000000041EF38F0C96E120000EF34F099EC15F0B2
:1000100096EC0CF0FDD7120061EF36F0D9CFE5FF7A
:10002000E1CFD9FF00C0E5FF01C0E5FF02C0E5FF59
:1000300003C0E5FF04C0E5FF05C0E5FF06C0E5FF1E
:1000400007C0E5FF08C0E5FF09C0E5FF0AC0E5FFFE
:100050000BC0E5FF0CC0E5FF0DC0E5FF0EC0E5FFDE
:100060000FC0E5FF10C0E5FF11C0E5FF12C0E5FFBE
:1000700013C0E5FF14C0E5FF15C0E5FF16C0E5FF9E
:1000800017C0E5FF18C0E5FF19C0E5FF1AC0E5FF7E
:100090001BC0E5FF1CC0E5FF1DC0E5FF1EC0E5FF5E
:1000A0001FC0E5FF20C0E5FF21C0E5FF22C0E5FF3E
:1000B00023C0E5FF24C0E5FF25C0E5FF020EDBCF2E
:1000C00000F0030EDBCF01F0040EDBCF02F0025094
:1000D000086E0150076E0050066EE56A100EE56E60
:1000E0000850E56E0750E56E0650E56E800EE56E31
:1000F0000F0EE56E230EE56EA1EC2AF0080EE12648
:100100002BCF03F02CCF04F02DCF05F02ECF06F02F
:1001100003C007F004C008F005C009F006C00AF0EB
:10012000D8800AAED8900AE30A1E091E081E076C82
:1001300005E1082A03E1092AD8B40A2A23CF0BF0E3
:1001400024CF0CF0E86A0F0124BFFF0E0D6E0E6E77
:10015000D8902731106E26310F6ED89010320F32A2
:100160002851E840E840C00B10122841E8403F0BFE
:10017000E8BAC009116E126A11BE12680F500B5C0A
:100180000F6E10500C58106E11500D58116E125009
:100190000E58126ED89012AED880D8A04ED0125001
:1001A000800F800F08E1000E115C05E1000E105C6D
:1001B00002E1010E0F5CD8B040D00A340A30166E4E
:1001C0000930156E0830146E0730136E31CF17F0FA
:1001D00032CF18F0E86A0F0132BFFF0E196E800FA0
:1001E000F36E1650800FF35C08E11550195C05E1C1
:1001F0001450185C02E11350175C1FE30C50156E8D
:1002000015260D34166ED890153616360B44E84474
:10021000FC0B146E0B50E844E844030B15120F015D
:10022000256B1450266F1550276F1650286F2B6BB7
:100230002C6B2D6B2E6BA8EF04F00850076E095045
:10024000086ED89008320732D890083207320A5028
:10025000E840E840C00B08120A40E8403F0BE8BA0B
:10026000C0090A6A083408300A6E0730096EE86A65
:100270000ABEFF0E0B6E0C6E07C00DF008C00EF02C
:10028000E86A08BEFF0E136EE56E1350E56E0E5061
:10029000E56E0D50E56E0C50E56E0B50E56E0A50A4
:1002A000E56E0950E56E55EC1FF0096EF3CF0AF0CC
:1002B000F4CF0BF0E9CF0CF0080EE12631CF0DF0B2
:1002C00032CF0EF0E86A0F0132BFFF0E136E146ECC
:1002D000E56E1350E56E0E50E56E0D50E56E0C5058
:1002E000E56E0B50E56E0A50E56E0950E56E24ECA4
:1002F00023F0096EF3CF0AF0080EE12629CF0BF0A8
:100300002ACF0CF0E86A0F012ABFFF0E156E0C50C1
:10031000196E192615341A6ED89019361A360B44F0
:10032000E844FC0B186E0B50E844E844030B191228
:10033000176AD88006AED890D8B064D109C00BF047
:100340000AC00CF0E86A0ABEFF0E156E800FF36E4D
:100350001250800FF35C08E11150155C05E110505C
:100360000C5C02E10F500B5CD8B024D10650800F1A
:10037000F36E1A50800FF35C08E11950055C05E13B
:100380001850045C02E11750035CD8B0ECD02FCFBA
:100390000BF030CF0CF0E86A0F0130BFFF0E156E86
:1003A000166E03500B2604500C22055015220650E1
:1003B00016220B500F012B6F0C502C6F15502D6F08
:1003C00016502E6F31CF0BF032CF0CF02FCF15F02F
:1003D00030CF16F00C50800FF36E1650800FF35C88
:1003E00002E115500B5CD8B0A2D02BCF1BF02CCF64
:1003F0001CF02DCF1DF02ECF1EF0D8901D30206E9A
:100400001C301F6ED89020321F321E50E840E8404A
:10041000C00B20121E40E8403F0BE8BAC009226A18
:100420001F50076E2050086E08340830206E0730C9
:100430001F6EE86A20BEFF0E216E226E07C023F0F9
:1004400008C024F0E86A08BEFF0E256EE56E255050
:10045000E56E2450E56E2350E56E2250E56E215086
:10046000E56E2050E56E1F50E56E55EC1FF01F6ED7
:10047000F3CF20F0F4CF21F0E9CF22F0080EE126EF
:100480000BC023F00CC024F0E86A0CBEFF0E256EF2
:10049000E56E2550E56E2450E56E2350E56E225042
:1004A000E56E2150E56E2050E56E1F50E56E24ECA0
:1004B00023F01F6EF3CF20F0080EE1261F50096EC7
:1004C00020500A6E09C01FF00AC020F0E86A0ABE78
:1004D000FF0E216E226E1250800FF36E2250800F9D
:1004E000F35C08E12150115C05E12050105C02E151
:1004F0001F500F5C1CE20B50155C0B6E0C50165815
:100500000C6EE86A0CBEFF0E156E166E0B501B5E6D
:100510000C501C5A15501D5A16501E5A1B500F01D4
:100520002B6F1C502C6F1D502D6F1E502E6F1A50AC
:10053000800FF36E0F012E51800FF35C08E12D51F7
:10054000195C05E12C51185C02E12B51175CD8B005
:10055000D8D117500F012B6F18502C6F19502D6FD9
:100560001A502E6FCED11A50800FF36E0650800FA6
:10057000F35C08E10550195C05E10450185C02E1E8
:100580000350175CD8B0BDD10D50035C0B6E0E50FC
:1005900004580C6E13500558156E14500658166EFC
:1005A0000B500F012B6F0C502C6F15502D6F1650E8
:1005B0002E6FA7D12FCF0BF030CF0CF0E86A0F01D0
:1005C00030BFFF0E156E166E0D500B260E500C220E
:1005D00013501522145016220B50035C0B6E0C5056
:1005E00004580C6E15500558156E16500658166EA8
:1005F0000B500F012B6F0C502C6F15502D6F165098
:100600002E6F7FD10A1E096CD8B40A2A09C00BF0DC
:100610000AC00CF0E86A0ABEFF0E156E166E125084
:10062000800FF36E1650800FF35C08E11550115CDB
:1006300005E10C50105C02E10B500F5CD8B03ED1CC
:100640001A1C166E191C156E181C0C6E171C0B6EDE
:100650000B2A04E10C2A02E1154A162A1650800FD3
:10066000F36E0650800FF35C08E10550155C05E160
:1006700004500C5C02E103500B5CD8B0F8D02FCFD3
:1006800017F030CF18F0E86A0F0130BFFF0E196E77
:100690001A6E1750035C176E18500458186E1950D4
:1006A0000558196E1A5006581A6E17500F012B6F05
:1006B00018502C6F19502D6F1A502E6F31CF17F024
:1006C00032CF18F02FCF19F030CF1AF01850800F1A
:1006D000F36E1A50800FF35C02E11950175CD8B02A
:1006E000AAD02BCF1BF02CCF1CF02DCF1DF02ECF7E
:1006F0001EF0D8901D30206E1C301F6ED890203216
:100700001F321E50E840E840C00B20121E40E84057
:100710003F0BE8BAC009216E226A21BE2268221E60
:10072000211E201E1F6C05E1202A03E1212AD8B4D6
:10073000222A1F50076E2050086E08340830206EA1
:1007400007301F6EE86A20BEFF0E216E226EE86A37
:1007500008BEFF0E236EE56E2350E56E0850E56E71
:100760000750E56E2250E56E2150E56E2050E56E93
:100770001F50E56E55EC1FF0076EF3CF08F0F4CF75
:100780001FF0E9CF20F0080EE12617C021F018C0B5
:1007900022F0E86A18BEFF0E236EE56E2350E56E68
:1007A0002250E56E2150E56E2050E56E1F50E56E3B
:1007B0000850E56E0750E56E24EC23F0076EF3CF8A
:1007C00008F0080EE126081E076C02E1082A00E185
:1007D0000750096E08500A6EE86A0ABEFF0E076EDF
:1007E000800FF36E1250800FF35C08E11150075C2C
:1007F00005E110500A5C02E10F50095C1CE2175041
:10080000195C176E18501A58186EE86A18BEFF0E59
:10081000076E086E17501B2618501C2207501D2209
:1008200008501E221B500F012B6F1C502C6F1D50A7
:100830002D6F1E502E6F0F012E51800FF36E16502C
:10084000800FF35C08E115502D5D05E10C502C5D27
:1008500002E10B502B5DD8B054D00B500F012B6F21
:100860000C502C6F15502D6F16502E6F4AD006501D
:10087000800FF36E1650800FF35C08E11550055C95
:1008800005E10C50045C02E10B50035CD8B039D098
:100890000D500324076E0E500420086E13500520DF
:1008A000096E145006200A6E07500F012B6F085076
:1008B0002C6F09502D6F0A502E6F23D02FCF07F0C9
:1008C00030CF08F0E86A0F0130BFFF0E096E0A6EE4
:1008D00007500D2608500E22095013220A501422E8
:1008E0000D5003260E5004221350052214500622E8
:1008F00003500F012B6F04502C6F05502D6F0650C5
:100900002E6FD8900F012D31046E2C31036ED890CC
:10091000043203322E51E840E840C00B04122E414D
:10092000E8403F0BE8BAC009056E066A05BE0668D6
:10093000255103262651042227510522285106223B
:100940000350256F0450266F0550276F0650286FFF
:10095000E56A100EE56E800EE56E0F0EE56E230E55
:10096000E56E0250E56E0150E56E0050E56EA1ECBB
:100970002AF0080EE126E4CF25F0E4CF24F0E4CFFE
:1009800023F0E4CF22F0E4CF21F0E4CF20F0E4CF55
:100990001FF0E4CF1EF0E4CF1DF0E4CF1CF0E4CF55
:1009A0001BF0E4CF1AF0E4CF19F0E4CF18F0E4CF55
:1009B00017F0E4CF16F0E4CF15F0E4CF14F0E4CF55
:1009C00013F0E4CF12F0E4CF11F0E4CF10F0E4CF55
:1009D0000FF0E4CF0EF0E4CF0DF0E4CF0CF0E4CF55
:1009E0000BF0E4CF0AF0E4CF09F0E4CF08F0E4CF55
:1009F00007F0E4CF06F0E4CF05F0E4CF04F0E4CF55
:100A000003F0E4CF02F0E4CF01F0E4CF00F0E4CF54
:100A1000D9FF1200D9CFE5FFE1CFD9FF00C0E5FF34
:100A200001C0E5FF02C0E5FF03C0E5FF04C0E5FF2C
:100A300005C0E5FF06C0E5FF07C0E5FF08C0E5FF0C
:100A400009C0E5FF0AC0E5FF0BC0E5FF0CC0E5FFEC
:100A50000DC0E5FF0EC0E5FF0FC0E5FF10C0E5FFCC
:100A600011C0E5FF12C0E5FF13C0E5FF14C0E5FFAC
:100A700015C0E5FF16C0E5FF17C0E5FF18C0E5FF8C
:100A800019C0E5FF1AC0E5FF1BC0E5FF1CC0E5FF6C
:100A90001DC0E5FF1EC0E5FF020EDBCF00F0030E18
:100AA000DBCF01F0040EDBCF02F0050EDBCF03F04D
:100AB000060EDBCF04F0070EDBCF05F0080EDBCF10
:100AC00006F0090EDBCF07F00A0EDBCF08F0096A4B
:100AD0000A6A02C00DF00D50800A0DE102500501B6
:100AE000686F0150676F0050666F050E016E660EED
:100AF000006E800E026E03C0E9FF04C0F3FF0550D4
:100B00009CEC38F00B6E0B50D8B4C0EF08F00B50D3
:100B1000250A02E0A7EF08F00C6A0D6A0E6A0F6A58
:100B2000106A0A0E116E126A136A146A200E156E8C
:100B30001668176A2B0E186E032A02E3044A052A68
:100B400003C0E9FF04C0F3FF05509CEC38F0196EB8
:100B5000250A13E11950E56E0250E56E0150E56E6D
:100B60000050E56EFBEC27F0040EE126094A0A2A44
:100B7000032A02E3044A052ABED71950300A06E1C7
:100B8000300E156E032A02E3044A052A03C0E9FF6A
:100B900004C0F3FF05509CEC38F02D0A06E1010E6D
:100BA000146E032A02E3044A052A03C0E9FF04C0C5
:100BB000F3FF05509CEC38F0200A08E1010E176E97
:100BC000200E186E032A02E3044A052A03C0E9FF37
:100BD00004C0F3FF05509CEC38F02B0A06E1010E2F
:100BE000176E032A02E3044A052A03C0E9FF04C082
:100BF000F3FF05509CEC38F0196E310E195C2BE3B5
:100C00003A0E195C28E203C019F004C01AF005C0BE
:100C10001BF019C0E9FF1AC0F3FF1B509CEC38F021
:100C20001C6E300E1C5C11E33A0E1C5C0EE213507D
:100C30000A0DF3CF1DF01C501D26D00E1D24136E7F
:100C4000192A02E31A4A1B2AE4D719C003F01AC072
:100C500004F01BC005F003C0E9FF04C0F3FF05501A
:100C60009CEC38F02E0A2DE1032A02E3044A052AFF
:100C7000166A03C019F004C01AF005C01BF019C0B1
:100C8000E9FF1AC0F3FF1B509CEC38F01C6E300ECD
:100C90001C5C11E33A0E1C5C0EE216500A0DF3CFF9
:100CA0001DF01C501D26D00E1D24166E192A02E3BD
:100CB0001A4A1B2AE4D719C003F01AC004F01BC05B
:100CC00005F003C0E9FF04C0F3FF05509CEC38F0C9
:100CD000196E6C0A07E1010E0C6E032A02E3044A46
:100CE000052A09D01950680A06E1010E0E6E032A82
:100CF00002E3044A052A03C0E9FF04C0F3FF0550DC
:100D00009CEC38F0750A06E1010E106E032A02E32E
:100D1000044A052A03C0E9FF04C0F3FF05509CEC18
:100D200038F0196E730A05E1010E0D6E200E156E76
:100D30003FD01950780A03E1100E116E39D01950C6
:100D4000580A05E1100E116E010E126E31D01950C5
:100D5000630A02E1116A2CD019506F0A03E1080EF0
:100D6000116E26D01950660A03E1010E0F6E20D0D5
:100D70001950640A1DE01950690A1AE0105005E084
:100D8000FF0E03260422052213D01950E56E0250EF
:100D9000E56E0150E56E0050E56EFBEC27F0040EA9
:100DA000E126094A0A2A032A02E3044A052AA3D6AD
:100DB0000D5021E00650030F0D6E000E0720196E36
:100DC000000E08201A6E0DC006F019C007F01AC0F8
:100DD00008F0FD0E0D26FF0E19221A220DC0E9FFA4
:100DE00019C0F3FF1A5041EC37F00D6EF3CF19F034
:100DF000F4CF1AF0FDD00F500DE0000E1A6E120E57
:100E0000196E080E0D6E040E0626000E072208222B
:100E10001668EED016680C5023E00650040F0C6ED6
:100E2000000E07200F6E000E08201B6E0CC006F08F
:100E30000FC007F01BC008F0FC0E0C26FF0E0F229F
:100E40001B220CC0E9FF0FC0F3FF1B50AAEC36F0C9
:100E50000C6EF3CF0FF0F4CF1BF0E9CF1CF067D08E
:100E60000E502FE00650020F0E6E000E07201D6E72
:100E7000000E08201E6E0EC006F01DC007F01EC03A
:100E800008F0FE0E0E26FF0E1D221E220EC0E9FFE8
:100E90001DC0F3FF1E5000EC38F00E6E0EC00CF0BB
:100EA0000F6A1B6A1C6A11500A0A03E11050D8B479
:100EB0003ED00C500E6E0EC00CF00F6A1B6A1C6AFE
:100EC00036D00650020F0E6E000E07201D6E000E6B
:100ED00008201E6E0EC006F01DC007F01EC008F0F0
:100EE000FE0E0E26FF0E1D221E220EC0E9FF1DC0A3
:100EF000F3FF1E5000EC38F00E6EF3CF1DF00EC065
:100F00000CF01DC00FF0E86A1DBEFF0E1B6E1C6EBC
:100F100011500A0A02E110500AE00C500E6E0F50F8
:100F20001D6E0EC00CF01DC00FF01B6A1C6A050E72
:100F3000196E3B0E0D6E800E1A6E1150D8B440D053
:100F4000105013E01150E56E050EE56E3B0EE56E98
:100F50001C50E56E1B50E56E0F50E56E0C50E56EB3
:100F600048EC22F0070EE12612D01150E56E050E76
:100F7000E56E3B0EE56E1C50E56E1B50E56E0F50A6
:100F8000E56E0C50E56E1FEC2EF0070EE1261750B3
:100F90002FE00DC0E9FF19C0F3FF1A509CEC38F0A8
:100FA0002D0A26E0FF0E0D2619221A2218C0E5FF91
:100FB0000DC0E9FF19C0F3FF1A5014EC39F018D036
:100FC0000CC0E5FF0DC0E9FF19C0F3FF1A5014EC87
:100FD00039F00D50010F0C6E000E19200E6E000E30
:100FE0001A20E56A0CC0E9FF0EC0F3FF14EC39F0DB
:100FF0000DC00CF019C00EF01AC00FF013C010F0A5
:10100000105010E00CC0E9FF0EC0F3FF0F509CEC35
:1010100038F0176E175006E00C2A02E30E4A0F2A2A
:101020001006EED710C013F014501EE109C00CF0EA
:101030000AC00EF010C00FF00F5010E01550E56E12
:101040000250E56E0150E56E0050E56EFBEC27F0B6
:10105000040EE1260C4A0E2A0F06EED70CC009F04A
:101060000EC00AF00FC013F016C00CF00DC00DF04A
:1010700019C00EF01AC00FF009C010F00AC015F028
:101080000DC0E9FF0EC0F3FF0F509CEC38F0166E58
:101090001650D8B43ED00CC016F0176A161E171E94
:1010A0001650171005E00CC016F00C06165031E073
:1010B0000DC0E9FF0EC0F3FF0F509CEC38F0116E2D
:1010C000125010E01150E56EBDEC37F0166EE6528E
:1010D000165004E0DF0E1114166E02D011C016F087
:1010E00016C011F01150E56E0250E56E0150E56E2C
:1010F0000050E56EFBEC27F0040EE1260D2A02E31A
:101100000E4A0F2A104A152A1350D8B4B9D713061D
:10111000B7D710C009F015C00AF014502BE010C06A
:101120000CF015C00DF013C00EF00E501FE0200E95
:10113000E56E0250E56E0150E56E0050E56EFBEC89
:1011400027F0040EE1260C4A0D2A0E06EED70B50AE
:10115000E56E0250E56E0150E56E0050E56EFBEC69
:1011600027F0040EE126094A0A2A04D00CC009F02F
:101170000DC00AF0032A02E3044A052A7BEF05F0BA
:101180000AC0F3FF0950E4CF1EF0E4CF1DF0E4CF16
:101190001CF0E4CF1BF0E4CF1AF0E4CF19F0E4CF59
:1011A00018F0E4CF17F0E4CF16F0E4CF15F0E4CF59
:1011B00014F0E4CF13F0E4CF12F0E4CF11F0E4CF59
:1011C00010F0E4CF0FF0E4CF0EF0E4CF0DF0E4CF59
:1011D0000CF0E4CF0BF0E4CF0AF0E4CF09F0E4CF59
:1011E00008F0E4CF07F0E4CF06F0E4CF05F0E4CF59
:1011F00004F0E4CF03F0E4CF02F0E4CF01F0E4CF59
:1012000000F0E4CFD9FF12003C4E4F20464C4F4136
:10121000543E0000D9CFE5FFE1CFD9FF00C0E5FF84
:1012200001C0E5FF02C0E5FF03C0E5FF04C0E5FF24
:1012300005C0E5FF06C0E5FF07C0E5FF08C0E5FF04
:1012400009C0E5FF0AC0E5FF0BC0E5FF0CC0E5FFE4
:101250000DC0E5FF020EDBCF00F0030EDBCF01F087
:10126000040EDBCF02F00050090F066E000E0120C5
:10127000076E000E0220086E0B6E07500A6E0650B5
:10128000096EE56A0D0EE56E0B50E56E0A50E56ECF
:101290000950E56E800EE56E050EE56E200EE56EDA
:1012A000A1EC2AF0080EE12600C009F001C00AF006
:1012B00002C00BF0E56AE56E0B50E56E0A50E56E74
:1012C0000950E56E800EE56E040EE56E810EE56E4A
:1012D000A1EC2AF0080EE12681C403F00350010AB4
:1012E00004E00350030A01E019D105013551036EF2
:1012F0003651046E05012851056E2951096E0550BD
:10130000035C0501716F09500458726F0501355176
:101310000501286F050136510501296F0501375177
:1013200005012A6F0501385105012B6F0501715127
:101330007211D8A47FD072EC35F0036EF3CF04F0B5
:10134000F4CF05F0E9CF09F005012D510A6E2E51B9
:101350000B6E2F510C6E30510D6E0A50035E0B5008
:10136000045A0C50055A0D50095A03500301F96FE5
:101370000450FA6F0550FB6F7F0E0914FC6F0501D6
:101380002CB125D00301FA35FC31046EFB31036E1C
:10139000043404320332000E04BEFF0E096E056EE3
:1013A00086C40AF00B6A0C6A0D6A0D50800FF36E4A
:1013B0000950800FF35C08E105500C5C05E1045016
:1013C0000B5C02E103500A5C02E205012C8105017D
:1013D0002CB14AD024C503F025C504F026C505F07C
:1013E00027C509F00301FC51800FF36E0950800FEF
:1013F000F35C08E10550FB5D05E10450FA5D02E194
:101400000350F95D08E203C0F9F304C0FAF305C024
:10141000FBF309C0FCF3050139A303D0010E036EF1
:1014200001D0036803C071F50501726B03AE01D0F2
:1014300072691AD005012C9131C5F9F332C5FAF35E
:1014400033C5FBF334C5FCF30301F9510501246FE7
:101450000301FA510501256F0301FB510501266FB8
:101460000301FC510501276F0301FC51800F800F20
:1014700008E1000EFB5D05E1000EFA5D02E1010EE0
:10148000F95D06E20501476B486B496B4A6B46D034
:101490000301F951036EFA51046EFB51056EFC51C4
:1014A000E56E0550E56E0450E56E0350E56E010EE5
:1014B000E56E000EE56AE56AE56AC4EC25F0036EA8
:1014C000F3CF04F0F4CF05F0E9CF09F0080EE126E0
:1014D00071C50AF072C50BF0E86A050172BFFF0E14
:1014E0000C6E0D6E0950E56E0550E56E0450E56E0C
:1014F0000350E56E0D50E56E0C50E56E0B50E56E39
:101500000A50E56E55EC1FF00501476FF3CF48F523
:10151000F4CF49F5E9CF4AF5080EE126020E0401A1
:10152000815DD8A045D1050139A142D10050230FDA
:10153000036E000E0120046E000E0220E56E0450C2
:10154000E56E0350E56E0EEC00F0030EE126005050
:10155000230F036E000E0120046E000E0220056EA4
:10156000020E0326000E0422052203C0E9FF04C078
:10157000F3FF0550AAEC36F0F3CF04F0F4CF05F0FA
:10158000E9CF09F00450036E0550046ED890043280
:101590000332D890043203320950E840E840C00BCF
:1015A00004120940E8403F0BE8BAC009056E096A19
:1015B00005BE096805013551035C05014B6F050146
:1015C0003651045805014C6F050137510558050186
:1015D0004D6F05013851095805014E6FD8804EAF47
:1015E000D89022E30401831D046E821D036E034A1A
:1015F000042AE86A04BEFF0E056E096E05014E510D
:10160000800FF36E0950800FF35C08E105504D5DCB
:1016100005E104504C5D02E103504B5D05E305011B
:101620004B6B4C6B4D6B4E6B05014E51800F800F19
:1016300008E1000E4D5D05E1000E4C5D02E1010E7A
:101640004B5D1EE382C403F083C404F0E86A040126
:1016500083BFFF0E056E800FF36E05014E51800FA4
:10166000F35C08E14D51055C05E14C51045C02E17D
:101670004B51035C05E305014B6B4C6B4D6B4E6BA3
:101680000401875109E0E86CD89005014B374C37CD
:101690004D374E37010FF9E305014E51800F800F92
:1016A00008E1000E4D5D05E1800E4C5D02E1000E8B
:1016B0004B5D07E305014B697F0E4C6F4D6B4E6B25
:1016C00014D005014E51800F810F08E1FF0E4D5DD2
:1016D00005E1800E4C5D02E1000E4B5D06E2050166
:1016E0004B6B800E4C6F4D694E690050330F036E8B
:1016F000000E0120046E000E0220056E05014B5104
:10170000096E4C51E56E0950E56E0550E56E0450CA
:10171000E56E0350E56E39EC11F0050EE12604018B
:101720008151030A23E10050330F036E000E0120A4
:10173000046E000E0220056E0B0E0326000E04221E
:10174000052203C0E9FF04C0F3FF0550AAEC36F000
:10175000F3CF04F0F4CF05F00450036E0550046E8F
:1017600003500501206F0450216F22D00050330F29
:10177000036E000E0120046E000E0220056E0B0E9B
:101780000326000E0422052203C0E9FF04C0F3FF74
:101790000550AAEC36F0F3CF04F0F4CF05F0045076
:1017A000036E0550046E03500501226F0450236F31
:1017B00081C403F00350010A04E00350030A01E06E
:1017C0007DD020C503F021C504F0E86A050121BFE2
:1017D000FF0E056E096E05014751035C05014B6F55
:1017E00005014851045805014C6F05014951055840
:1017F00005014D6F05014A51095805014E6F800FD3
:10180000800F08E1000E4D5D05E1800E4C5D02E1A8
:10181000000E4B5D07E305014B697F0E4C6F4D6B6E
:101820004E6B14D005014E51800F810F08E1FF0E61
:101830004D5D05E1800E4C5D02E1000E4B5D06E260
:1018400005014B6B800E4C6F4D694E690050440F83
:10185000036E000E0120046E000E0220056E0501CD
:101860004B51096E4C51E56E0950E56E0550E56E21
:101870000450E56E0350E56E39EC11F0050EE126DB
:10188000440E0026000E012202220B0E0026000E3E
:101890000122022200C0E9FF01C0F3FF0250AAECBE
:1018A00036F0F3CF01F0F4CF02F00150006E025099
:1018B000016E00500501226F0150236F0850086E21
:1018C000E56A0D0EE56E800EE56E050EE56E200EE6
:1018D000E56E0850E56E0750E56E0650E56EA1EC2A
:1018E0002AF0080EE126E4CF0DF0E4CF0CF0E4CFAF
:1018F0000BF0E4CF0AF0E4CF09F0E4CF08F0E4CF36
:1019000007F0E4CF06F0E4CF05F0E4CF04F0E4CF35
:1019100003F0E4CF02F0E4CF01F0E4CF00F0E4CF35
:10192000D9FF120025642025640A000000C0E5FFED
:1019300001C0E5FF02C0E5FF03C0E5FFE1EC26F0D2
:101940006DEC13F0E1EC26F0F3EC23F072EC35F0E3
:10195000006EF3CF01F0F4CF02F0E9CF03F0040101
:101960003451005E3551015A3651025A3751035AEB
:10197000039E3F0E035C08E1FF0E025C05E1FF0ED3
:10198000015C02E1FF0E005CD8B0EAEF0EF072ECF1
:1019900035F0F3CF01F0F4CF02F0E9CF03F0880F78
:1019A0000401346F130E0120356F000E0220366FD4
:1019B000000E0320376F61EC21F0006E0050D8B4A8
:1019C000F3EC0EF0010E04013C5D02E1900E3B5D74
:1019D00004E204013B3F01D03C2B04C0E5FFF2CF01
:1019E00004F0F29E0401A95105012D6F0401AA51D2
:1019F00005012E6F0401AB5105012F6F0401AC519D
:101A00000501306F0401AD510501316F0401AE5184
:101A10000501326F0401AF510501336F0401B0516C
:101A20000501346F0401B1510501356F0401B25154
:101A30000501366F0401B3510501376F0401B4513C
:101A40000501386F0401B5510501396F0401AD6B13
:101A5000AE6BAF6BB06B04BEF28EE4CF04F0800EC1
:101A6000E56E040EE56E930EE56E0AEC09F0030ECA
:101A7000E1269EC473F59FC474F505017451800F6F
:101A80007C0F02E1000E735D04E305017369030E30
:101A9000746F05017451800F840F02E1010E735DB4
:101AA00005E2010E0501736FFC0E746F05017451A0
:101AB000800F800F02E1010E735D10E30501745188
:101AC000800FF36E04019751800FF35C03E1965190
:101AD0000501735D03E20501736B746BD88005012A
:101AE00074AFD89015E30401971D016E961D006E2A
:101AF000004A012A0150800FF36E05017451800FD6
:101B0000F35C02E17351005C03E20501736B746BDB
:101B100004019AA309D0B5A507D0D880050174AFF8
:101B2000D89002E3736B746BD880050174AFD890C2
:101B300007E37351FF0F006E030E7421016E04D092
:101B400073C500F074C501F000C075F501C076F5ED
:101B500005017551020BE840010BE838E844F46ECA
:101B6000BD50DF0BF410BD6E7551010B010BE83851
:101B7000F46EBD50EF0BF410BD6E76357631016E0C
:101B80007531006E0134013200320050BE6ED880D3
:101B9000050174AFD89002E3898C01D0899C04C000
:101BA000E5FFF2CF04F0F29E0301165105012D6FFF
:101BB0000301175105012E6F0301185105012F6F05
:101BC000030119510501306F03011A510501316FED
:101BD00003011B510501326F03011C510501336FD5
:101BE00003011D510501346F03011E510501356FBD
:101BF00003011F510501366F030120510501376FA5
:101C0000030121510501386F030122510501396F8C
:101C100003011A6B1B6B1C6B1D6B04BEF28EE4CFB1
:101C200004F0800EE56E030EE56E000EE56E0AEC24
:101C300009F0030EE1260BC373F50CC374F505011F
:101C40007451800F7C0F02E1000E735D04E3050107
:101C50007369030E746F05017451800F840F02E1E4
:101C6000010E735D05E2010E0501736FFC0E746FCA
:101C700005017451800F800F02E1010E735D10E3C6
:101C800005017451800FF36E03010451800FF35C62
:101C900003E103510501735D03E20501736B746B8E
:101CA000D880050174AFD89015E30301041D016EBF
:101CB000031D006E004A012A0150800FF36E0501DA
:101CC0007451800FF35C02E17351005C03E2050183
:101CD000736B746B030107A309D022A507D0D880CA
:101CE000050174AFD89002E3736B746BD880050163
:101CF00074AFD89007E37351FF0F006E030E742189
:101D0000016E04D073C500F074C501F000C075F514
:101D100001C076F505017551020BE840010BE8386A
:101D2000E844F46E6650DF0BF410666E7551010BDB
:101D3000010BE838F46E6650EF0BF410666E7635E2
:101D40007631016E7531006E01340132003200507F
:101D5000676ED880050174AFD89002E3898E01D0F8
:101D6000899EE1EC26F03AC400F004013A070050E5
:101D700031E139C43AF404017F2B0401B5A103D049
:101D8000030122B102D0006A02D0010E006E016A86
:101D900000BE01680150E56E0050E56E030121515F
:101DA000E56E2051E56E1F51E56E1E51E56E040192
:101DB000B451E56EB351E56EB251E56EB151E56EC9
:101DC000000EE56E390EE56E960EE56ECDEC32F046
:101DD0000D0EE126E4CF03F0E4CF02F0E4CF01F0F2
:101DE000E4CF00F0120000C0E5FF01C0E5FF02C033
:101DF000E5FF03C0E5FF04C0E5FF05C0E5FF06C041
:101E0000E5FF07C0E5FF08C0E5FF09C0E5FF0AC020
:101E1000E5FF0BC0E5FF0CC0E5FF006A016A026A3E
:101E2000040E025CD8B0E8D101C003F0012A100E04
:101E3000035CD8B0E1D104014B2B100E4B5D01E3E4
:101E40004B6B04014B39E8441F0B036E046A770E99
:101E50000326050E042203C0E9FF04C0EAFFEFCF0A
:101E600003F0070E4B15046E010E056E000E066E94
:101E7000045006E0E86CD89005360636010FFCE306
:101E8000076A035005160750061605500610D8803D
:101E9000E866D890056A05360550D8A4C1D7040174
:101EA0004B51020DF450046EF3CF03F0E00E032407
:101EB000056E000E0420066E05C0E9FF06C0EAFFAD
:101EC000EECF05F0EFCF06F0040148A19DD0750ECE
:101ED0000324076E030E0420086E07C0E9FF08C044
:101EE000EAFFEECF07F0EFCF08F00650800FF36E59
:101EF0000850800FF35C02E10750055C03E2056ABD
:101F0000066A60D0950E0326030E042203C0E9FF83
:101F100004C0EAFFEECF03F0EFCF04F00450800FCF
:101F2000F36E0650800FF35C02E10550035C04E29F
:101F300005683F0E066E46D00750055C096E0850D6
:101F400006580A6EE86A0ABEFF0E0B6EE56E0B506D
:101F5000E56E0A50E56E0950E56EE56AE56A400EE9
:101F6000E56E000EE56A55EC1FF0096EF3CF0AF03E
:101F7000F4CF0BF0E9CF0CF0080EE1260750035C1C
:101F8000076E08500458086EE86A08BEFF0E036E1C
:101F9000E56E0350E56E0850E56E0750E56E0C5097
:101FA000E56E0B50E56E0A50E56E0950E56EC4EC27
:101FB00025F0036EF3CF04F0080EE1260350056E02
:101FC0000450066E04014751800FF36E0650800FD7
:101FD000F35C02E10550465D03E3056A066A14D02E
:101FE00004014651FF08036E3F0E4755046E06502C
:101FF000800FF36E0450800FF35C02E10350055C28
:1020000003E305683F0E066E04014B51020DF450C8
:10201000046EF3CF03F0550E0326030E042203C013
:10202000E9FF04C0EAFFEECF03F0EFCF04F0035066
:10203000055C036E04500658046ED88004AED89038
:1020400004E3041E036CD8B4042A022A0401475195
:10205000800FF36E0450800FF35C02E10350465D85
:10206000D8B0DED604014B51020DF450086EF3CF08
:1020700007F0550E0726030E082207C0E9FF08C027
:10208000EAFF05C0EEFF06C0EFFF040148A55AD0E5
:1020900004014B51020DF450086EF3CF07F0B50E5A
:1020A0000724096E030E08200A6E09C0E9FF0AC062
:1020B000EAFFEECF0BF0EFCF0CF00B500C10D8B4C2
:1020C00041D05B0E0726040E082207C0E9FF08C0B6
:1020D000EAFFEECF07F0EFCF08F00750055C036E84
:1020E00008500658046E03101CE00450800F800F47
:1020F00002E1010E035C076A07360C50800F800F67
:1021000002E1010E0B5C0B6A0B3607500B1809E15C
:1021100009C0E9FF0AC0EAFF03C0EEFF04C0EFFFF9
:102120007FD604014B51020DF450046EF3CF03F03F
:10213000B50E0326030E042203C0E9FF04C0EAFF24
:10214000EE6AEF6A040148A343D000500EE100C0DC
:1021500003F0002A046A4C0E0326040E042203C076
:10216000E9FF04C0EAFF420EEF6E00C003F0002A50
:10217000046A4C0E0326040E0422640E04014B254F
:10218000076E03C0E9FF04C0EAFF07C0EFFF00C00D
:1021900003F0002A046A4C0E0326040E04220650A3
:1021A000076E03C0E9FF04C0EAFF07C0EFFF00C0ED
:1021B00003F0002A046A4C0E0326040E0422055084
:1021C000076E03C0E9FF04C0EAFF07C0EFFF28D68F
:1021D0004BC403F00650E56E0550E56EE56A03500A
:1021E000E56E000EE56E550EE56E360EE56ECDEC35
:1021F00032F0070EE12614D602C001F000501DE0B7
:10220000040148A31AD000C002F0002A036A4C0E51
:102210000226040E032202C0E9FF03C0EAFF0A0EF1
:10222000EF6E0050E56E800EE56E040EE56E4C0E0E
:10223000E56E23EC2BF0040EE1260150E4CF0CF008
:10224000E4CF0BF0E4CF0AF0E4CF09F0E4CF08F0DC
:10225000E4CF07F0E4CF06F0E4CF05F0E4CF04F0DC
:10226000E4CF03F0E4CF02F0E4CF01F0E4CF00F0DC
:102270001200D9CFE5FFE1CFD9FF00C0E5FF01C0D3
:10228000E5FF02C0E5FF03C0E5FF04C0E5FF05C0B0
:10229000E5FF06C0E5FF07C0E5FF08C0E5FF09C090
:1022A000E5FF0AC0E5FF0BC0E5FF020EDBCF00F043
:1022B000030EDBCF01F0040EDBCF02F0050EDBCF07
:1022C00003F0060EDBCF04F002500A6E0150096ED7
:1022D0000050086EE56A110EE56E0A50E56E095071
:1022E000E56E0850E56E800EE56E040EE56E230E79
:1022F000E56EA1EC2AF0080EE12632C405F033C4E5
:1023000006F0E86A040133BFFF0E076E0401916F07
:102310000650906F05508F6F8E6B03C005F004C0A0
:1023200006F0E86A04BEFF0E076E086E23C409F0CB
:10233000E56AE56AE56A0950E56E0850E56E075002
:10234000E56E0650E56E0550E56E55EC1FF0040194
:102350008A6FF3CF8BF4F4CF8CF4E9CF8DF4080EB1
:10236000E12604012451D8B4AFD00450800F800F6F
:1023700002E1010E035C25E304012951800F7C0F6B
:1023800008E1000E285D05E1000E275D02E1000E68
:10239000265D17E204013151800FF36E0401915163
:1023A000800FF35C0DE190510401305D09E10401FF
:1023B0008F5104012F5D04E104018E5104012E5D53
:1023C00033E3D88004AED890D8A043D0040129517B
:1023D000800F840F08E1000E285D05E1000E275DE7
:1023E00002E1010E265D35E30401911D0A6E901D88
:1023F000096E8F1D046E8E1D036E032A04E1042AEC
:1024000002E1094A0A2A0A50800FF36E0401315191
:10241000800FF35C08E13051095C05E12F51045C49
:1024200002E12E51035C15E2055004012625036EDE
:1024300006502721046E07502821096E08502921D3
:102440000A6E0350266F0450276F0950286F0A50F8
:10245000296F040126390F0B036E2739046EF00B28
:10246000041A03262851E838F00B041228390F0B00
:10247000096E29390A6EF00B0A1A0926F00E0AB6FF
:102480000A2624C40BF0E56AE56AE56A0B50E56E9E
:102490000A50E56E0950E56E0450E56E0350E56E96
:1024A00055EC1FF0036EF3CF04F0F4CF09F0E9CF41
:1024B0000AF0080EE126035004018A2704508B23FA
:1024C00009508C230A508D2304012551D8B46CD0B7
:1024D0002A51055C0401F86F04012B5106580401D0
:1024E000F96F04012C5107580401FA6F04012D51B2
:1024F00008580401FB6F800F800F08E1010EFA5DA0
:1025000005E1000EF95D02E1000EF85D07E3FF0E44
:102510000401F86FF96FFA6BFB6B14D00401FB51E7
:10252000800F810F08E1FF0EFA5D05E1000EF95DF5
:1025300002E1000EF85D06E20401F86BF96BFF0E94
:10254000FA6FFB6F0401FB31FA310A6E096A093236
:10255000F951E8407F0B0912F931F831046E036A32
:10256000033225C40BF0E56AE56AE56A0B50E56EB7
:102570000A50E56E0950E56E0450E56E0350E56EB5
:1025800055EC1FF0036EF3CF04F0F4CF09F0E9CF60
:102590000AF0080EE126035004018A2704508B2319
:1025A00009508C230A508D23055004012A6F0650D0
:1025B0002B6F07502C6F08502D6F04019151800F25
:1025C000F36E04018D51800FF35C0DE18C51040119
:1025D000905D09E104018B5104018F5D04E1040168
:1025E0008A5104018E5D11E204018E5104012E6FA7
:1025F00004018F5104012F6F040190510401306FC9
:10260000040191510401316F3AD00401911D066E0D
:10261000901D056E8F1D046E8E1D036E032A04E14E
:10262000042A02E1054A062A04018D51800FF36E47
:102630000650800FF35C08E105508C5D05E1045005
:102640008B5D02E103508A5D0AE2035004012E6FA4
:1026500004502F6F0550306F0650316F10D00401B9
:102660008A5104012E6F04018B5104012F6F040164
:102670008C510401306F04018D510401316FE56A02
:10268000110EE56E800EE56E040EE56E230EE56E0E
:102690000250E56E0150E56E0050E56EA1EC2AF0A7
:1026A000080EE126E4CF0BF0E4CF0AF0E4CF09F006
:1026B000E4CF08F0E4CF07F0E4CF06F0E4CF05F074
:1026C000E4CF04F0E4CF03F0E4CF02F0E4CF01F074
:1026D000E4CF00F0E4CFD9FF120000C0E5FF01C055
:1026E000E5FF02C0E5FF03C0E5FF04C0E5FF05C04C
:1026F000E5FF06C0E5FF07C0E5FF08C0E5FF09C02C
:10270000E5FF0AC0E5FFC2A204D00401495182EFEF
:1027100015F004014A51D8B41DD104014951020DEC
:10272000F450016EF3CF00F0E00E0026000E0122FF
:1027300000C0E9FF01C0EAFFEECF00F0EFCF01F0EB
:10274000E80E4925026E036A040E032202C0E9FF67
:1027500003C0EAFFEFCF02F00250FF0A01E152D0BE
:1027600002380F0B036E920E0324046E056A0F0EDF
:102770000522066A920E03260F0E062203C0E9FF09
:1027800006C0EAFFEFCF03F0070E0214066E010E3B
:10279000076E065005E0E86CD8900736010FFDE3A0
:1027A000071C066E031604C0E9FF05C0EAFF03C05C
:1027B000EFFF02380F0B036E890E0324046E056AC7
:1027C0000F0E0522066A890E03260F0E062203C08D
:1027D000E9FF06C0EAFFEFCF03F0070E0214066E12
:1027E000010E076E065005E0E86CD8900736010F21
:1027F000FDE3071C066E031604C0E9FF05C0EAFFEF
:1028000003C0EFFF04014951020DF450046EF3CFF1
:1028100003F0E00E0326000E042200380F0B056EB5
:102820000138066EF00B061A052606320532F80E40
:1028300006B406260550005C056E06500158066E6B
:10284000C3CF07F0086A0750052608500622C4CFF8
:1028500007F0086A07500A6E096A095005260A50EF
:10286000062203C0E9FF04C0EAFF05C0EEFF06C070
:10287000EFFF04014551010A01E06AD0040149510A
:10288000020DF450046EF3CF03F0E00E0324056E46
:10289000000E0420066E05C0E9FF06C0EAFFEECF79
:1028A00000F0EFCF01F0750E0326030E042203C0E3
:1028B000E9FF04C0EAFFEECF05F0EFCF06F09C0E73
:1028C0000526D8A006060150800FF36E0650800F33
:1028D000F35C02E10550005C0EE20050640F056EEF
:1028E000000E0120066E03C0E9FF04C0EAFF05C028
:1028F000EEFF06C0EFFF04014951020DF450046ED3
:10290000F3CF03F0950E0326030E042203C0E9FF64
:1029100004C0EAFFEECF05F0EFCF06F0640E052607
:10292000D8B0062A0650800FF36E0150800FF35C7A
:1029300002E10050055C0CE29C0E0026D8A00106C6
:1029400003C0E9FF04C0EAFF00C0EEFF01C0EFFFD3
:1029500004014A6B0401492B100E495D01E3496BE8
:1029600004014939E8441F0B006E016A770E002606
:10297000050E012200C0E9FF01C0EAFFEFCF00F021
:10298000070E4915016E010E036E000E046E015014
:1029900006E0E86CD89003360436010FFCE3056AC4
:1029A000005003160550041603500410D880E86642
:1029B000D890036A03360350D8A4A2D0000E0401B5
:1029C0004925006E016A050E012200C0E9FF01C021
:1029D000EAFFEFCF00F00044E844FC0B016E012851
:1029E000C26EE80E4925006E016A040E012200C085
:1029F000E9FF01C0EAFFEFCF02F00250FF0A01E158
:102A00007BD002380F0B006E920E0024016E036A19
:102A10000F0E0322046A920E00260F0E042200C03D
:102A2000E9FF04C0EAFFEFCF00F0070E0214046EC6
:102A3000010E056E045005E0E86CD8900536010FD4
:102A4000FDE30550001201C0E9FF03C0EAFF00C02A
:102A5000EFFF380E006E0F0E016E02380F0B036E83
:102A6000046A0350002604500122380E056E0F0E32
:102A7000066E055003260650042203C0E9FF04C079
:102A8000EAFFEFCF03F0070E0216010E046E0250AC
:102A900005E0E86CD8900436010FFDE30450031202
:102AA00000C0E9FF01C0EAFF03C0EFFF0F0145834B
:102AB0000000000045930F0144930BC0E5FFF2CFE7
:102AC0000BF0F29E448100000000000000000000B6
:102AD00000000000000000000000000000000000F6
:102AE0000000000000000000000000000000449111
:102AF0000BBEF28EE4CF0BF0C282010E04014A6FCE
:102B000004014951E4CF0AF0E4CF09F0E4CF08F022
:102B1000E4CF07F0E4CF06F0E4CF05F0E4CF04F013
:102B2000E4CF03F0E4CF02F0E4CF01F0E4CF00F013
:102B3000120000C0E5FF01C0E5FF02C0E5FF03C0D1
:102B4000E5FF04C0E5FF4CEC39F0C0EC31F0330E8A
:102B5000CD6E9D809F808A98899C8B840401898595
:102B60009398929C9494040192959283800E006EA7
:102B7000040E016E0F0E036E380E00260350012264
:102B80000F0E036E800E005E0350015A800E026E1F
:102B9000040E036E0F0E046E380E0226045003223C
:102BA0000F0E046E800E025E0450035A02C0E9FF4D
:102BB00003C0EAFFEFCF02F0029200C0E9FF01C0BC
:102BC000EAFF02C0EFFF9482820E006E0F0E016ECC
:102BD0000F0E036E380E0026035001220F0E036EF7
:102BE000800E005E0350015A820E026E0F0E036EBD
:102BF0000F0E046E380E0226045003220F0E046ED0
:102C0000800E025E0450035A02C0E9FF03C0EAFFCF
:102C1000EFCF02F0029200C0E9FF01C0EAFF02C05C
:102C2000EFFF9486820E006E0F0E016E0F0E036E84
:102C3000380E0026035001220F0E036E800E005E38
:102C40000350015A820E026E0F0E036E0F0E046EB9
:102C5000380E0226045003220F0E046E800E025E10
:102C60000450035A02C0E9FF03C0EAFFEFCF02F0AD
:102C7000029600C0E9FF01C0EAFF02C0EFFF0C0EA0
:102C8000BD6EBD9ABD98BE6AB96AB9860401936BE0
:102C9000020E946F956B0A0E966F976B100E986FDD
:102CA000070E996F9A919A83800EE56E040EE56E79
:102CB000B60EE56EE8EC2FF0030EE126800EE56E11
:102CC000040EE56ED70EE56E30EC25F0030EE1261E
:102CD000800EE56E040EE56EC60EE56E30EC25F056
:102CE000030EE1260401B16BB26BB36BB46BB5910B
:102CF000B5959C6B9D6B9E6B9F6BA46BA56BA66B38
:102D0000A76B8A96899E8B80040189859396929EF3
:102D10009490040192959382810E006E0F0E016EC5
:102D20000F0E036E380E0026035001220F0E036EA5
:102D3000800E005E0350015A810E026E0F0E036E6C
:102D40000F0E046E380E0226045003220F0E046E7E
:102D5000800E025E0450035A02C0E9FF03C0EAFF7E
:102D6000EFCF02F0029200C0E9FF01C0EAFF02C00B
:102D7000EFFF9488820E006E0F0E016E0F0E036E31
:102D8000380E0026035001220F0E036E800E005EE7
:102D90000350015A820E026E0F0E036E0F0E046E68
:102DA000380E0226045003220F0E046E800E025EBF
:102DB0000450035A02C0E9FF03C0EAFFEFCF02F05C
:102DC000029800C0E9FF01C0EAFF02C0EFFF948A49
:102DD000820E006E0F0E016E0F0E036E380E00266F
:102DE000035001220F0E036E800E005E0350015A45
:102DF000820E026E0F0E036E0F0E046E380E022648
:102E0000045003220F0E046E800E025E0450035A1B
:102E100002C0E9FF03C0EAFFEFCF02F0029A00C050
:102E2000E9FF01C0EAFF02C0EFFF0C0E666E669A72
:102E30006698676A0301006B020E016F026B0A0E4F
:102E4000036F046B100E056F070E066F0791078363
:102E5000800EE56E030EE56E230EE56EE8EC2FF0B6
:102E6000030EE126800EE56E030EE56E440EE56E60
:102E700030EC25F0030EE126800EE56E030EE56EC4
:102E8000330EE56E30EC25F0030EE12603011E6BD8
:102E90001F6B206B216B22912295096B0A6B0B6BC8
:102EA0000C6B116B126B136B146B07831EEC2AF007
:102EB000C0EC31F09380810E006E0F0E016E0F0E8C
:102EC000036E380E0026035001220F0E036E800E93
:102ED000005E0350015A810E026E0F0E036E0F0E3C
:102EE000046E380E0226045003220F0E046E800E6C
:102EF000025E0450035A02C0E9FF03C0EAFFEFCFAD
:102F000002F0029000C0E9FF01C0EAFF02C0EFFF3B
:102F1000E56A800EE56E0F0EE56E810EE56E000E21
:102F2000E56A07EC32F0050EE12633EC39F072EC7D
:102F300035F0F3CF01F0F4CF02F0E9CF03F0880FC2
:102F40000401346F130E0120356F000E0220366F1E
:102F5000000E0320376FE4CF04F0E4CF03F0E4CF9A
:102F600002F0E4CF01F0E4CF00F01200D9CFE5FF8A
:102F7000E1CFD9FF00C0E5FF01C0E5FF02C0E5FFDA
:102F800003C0E5FF04C0E5FF05C0E5FF06C0E5FF9F
:102F900007C0E5FF08C0E5FF09C0E5FF0AC0E5FF7F
:102FA000020EDBCF00F0030EDBCF01F0040EDBCF0F
:102FB00002F0036A046A9CEC35F0056EFE0A01E03B
:102FC00077D03BEC30F09CEC35F0066E030E065CDF
:102FD000D8A05AD0060E065CD8B056D0FD0E0624F6
:102FE000076EFA6AFB6A0734FA36E834FA36FC0BE5
:102FF000000FE56E300EFA22000EFB22E450F96E4F
:1030000006EF18F018EF18F031EF18F00050090F24
:10301000076E000E0120086E000E022007C0E9FFB7
:1030200008C0F3FF00EC38F0036EF3CF04F02CD0AF
:103030000050090F076E000E0120086E000E0220DE
:10304000096E020E0726000E0822092207C0E9FFBA
:1030500008C0F3FF095000EC38F0036EF3CF04F022
:1030600013D00050070F076E000E0120086E000EEF
:10307000022007C0E9FF08C0F3FF9CEC38F0010B09
:10308000076E07C003F0046A06C007F00450E56E3F
:103090000350E56EE56A0750E56E000EE56E190E09
:1030A000E56E240EE56ECDEC32F0070EE12640D140
:1030B000070E055CD8B03CD1FA6AFB6A0534FA36D3
:1030C000E834FA36FC0BD60FE56E300EFA22000E0D
:1030D000FB22E450F96E79EF18F094EF18F0A6EFA8
:1030E00018F0B8EF18F0EAEF18F020EF19F03FEF02
:1030F00019F00050230F036E000E0120046E000E25
:103100000220E56E0450E56E0350E56EB1EC19F057
:10311000030EE126020EE56E00C0E9FF01C0F3FFD9
:10312000025014EC39F004D10050330F036E000E3E
:103130000120046E000E0220E56E0450E56E03507F
:10314000E56E17EC1EF0030EE126F2D00050440F9E
:10315000036E000E0120046E000E0220E56E045086
:10316000E56E0350E56E17EC1EF0030EE126E0D08D
:103170000050090F036E000E0120046E000E0220A5
:10318000056E9CEC35F00A6E096AE56A0AC0F4FF28
:1031900003C0E9FF04C0F3FF0550E6EC38F09CECF7
:1031A00035F0086A092608500A2209C0E5FF0AC05E
:1031B000F4FF03C0E9FF04C0F3FF0550E6EC38F06C
:1031C000010EE56E00C0E9FF01C0F3FF025014ECF0
:1031D00039F0AED00050090F036E000E0120046ECE
:1031E000000E0220056E020E0326000E04220522A8
:1031F0009CEC35F00A6E096AE56A0AC0F4FF03C068
:10320000E9FF04C0F3FF0550E6EC38F09CEC35F024
:10321000086A092608500A2209C0E5FF0AC0F4FF1F
:1032200003C0E9FF04C0F3FF0550E6EC38F0E56A9F
:1032300000C0E9FF01C0F3FF025014EC39F078D070
:103240000050070F036E000E0120046E000E0220D6
:10325000056E9CEC35F0010BF46E03C0E9FF04C071
:10326000F3FF05509CEC38F0FE0BF410E56E03C044
:10327000E9FF04C0F3FF055014EC39F059D09CEC81
:1032800035F0066E0050160F036E000E0120046E1E
:10329000000E0220056E03500C0F076E000E042076
:1032A000086E000E0520096E0650D880E866D8909A
:1032B0000A6A0A360A50D880E866D8900A6A0A363E
:1032C0000A50010BF46E07C0E9FF08C0F3FF095074
:1032D0009CEC38F0FE0BF410E56E07C0E9FF08C067
:1032E000F3FF095014EC39F00650010A21E1080EF1
:1032F0000326000E04220522E56AF46AF66AF76ADC
:1033000003C0E9FF04C0F3FF05508BEC38F0230E37
:103310000026000E01220222E56AE56A0250E56EEF
:103320000150E56E0050E56E6EEC27F0050EE126CB
:10333000E4CF0AF0E4CF09F0E4CF08F0E4CF07F0DF
:10334000E4CF06F0E4CF05F0E4CF04F0E4CF03F0DF
:10335000E4CF02F0E4CF01F0E4CF00F0E4CFD9FFF6
:103360001200D9CFE5FFE1CFD9FF00C0E5FF01C0D2
:10337000E5FF02C0E5FF03C0E5FF04C0E5FF05C0AF
:10338000E5FF06C0E5FF07C0E5FF08C0E5FF09C08F
:10339000E5FF0AC0E5FF0BC0E5FF020EDBCF00F042
:1033A000030EDBCF01F0040EDBCF02F0036A046AE8
:1033B0009CEC35F0056EFE0A01E094D03BEC30F059
:1033C0009CEC35F0066E06500EE00650010A1DE03A
:1033D0000650020A2CE006500A0A3BE006500B0A8F
:1033E00001E142D06DD00050060F076E000E0120A3
:1033F000086E000E022007C0E9FF08C0F3FF00ECD2
:1034000038F0036EF3CF04F05BD000500C0F076E62
:10341000000E0120086E000E022007C0E9FF08C060
:10342000F3FF00EC38F0036EF3CF04F049D0005006
:103430000E0F076E000E0120086E000E022007C05E
:10344000E9FF08C0F3FF00EC38F0036EF3CF04F09F
:1034500037D000C0E9FF01C0F3FF025000EC38F0A4
:10346000036EF3CF04F02CD00050020F076E000E55
:103470000120086E000E0220096E07C0E9FF08C097
:10348000F3FF0950AAEC36F0F3CF08F0F4CF09F0BF
:10349000E9CF0AF00850076E0950086ED89008323C
:1034A0000732D890083207320A50E840E840C00B93
:1034B00008120A40E8403F0B0750036E0850046EA4
:1034C0000450E56E0350E56EE56A0650E56E000EA9
:1034D000E56E600EE56E6E0EE56ECDEC32F0070E19
:1034E000E126BED0055010E00550010A36E0055037
:1034F000020A01E15BD005500A0A01E180D00550C3
:103500000B0A01E195D0ACD00050060F056E000EFD
:103510000120066E000E0220076E9CEC35F00B6E4B
:103520000A6AE56A0BC0F4FF05C0E9FF06C0F3FFB5
:103530000750E6EC38F09CEC35F0096A0A26095091
:103540000B220AC0E5FF0BC0F4FF05C0E9FF06C06F
:10355000F3FF0750E6EC38F083D000500C0F056EF7
:10356000000E0120066E000E0220076E9CEC35F066
:103570000B6E0A6AE56A0BC0F4FF05C0E9FF06C0DE
:10358000F3FF0750E6EC38F09CEC35F0096A0A26A8
:1035900009500B220AC0E5FF0BC0F4FF05C0E9FF8C
:1035A00006C0F3FF0750E6EC38F05AD000500E0F7B
:1035B000056E000E0120066E000E0220076E9CECC8
:1035C00035F00B6E0A6AE56A0BC0F4FF05C0E9FF2F
:1035D00006C0F3FF0750E6EC38F09CEC35F0096AC2
:1035E0000A2609500B220AC0E5FF0BC0F4FF05C0F4
:1035F000E9FF06C0F3FF0750E6EC38F031D09CEC51
:1036000035F0046E036A9CEC35F0066A032606501A
:1036100004220450E56E0350E56E0250E56E015041
:10362000E56E0050E56E74EC34F0050EE12618D01E
:103630009CEC35F0046E036A9CEC35F0066A0326B8
:10364000065004220450E56E0350E56E0250E56E0C
:103650000150E56E0050E56E6EEC27F0050EE12698
:10366000E4CF0BF0E4CF0AF0E4CF09F0E4CF08F0A8
:10367000E4CF07F0E4CF06F0E4CF05F0E4CF04F0A8
:10368000E4CF03F0E4CF02F0E4CF01F0E4CF00F0A8
:10369000E4CFD9FF120000C0E5FF01C0E5FF02C082
:1036A000E5FF03C0E5FF9EA06DD1006A82B2002A4B
:1036B0000050010BF46E04019B51FE0BF4109B6F44
:1036C000040180B308D00401B16BB26BB36BB46B6F
:1036D000B581B58502D00401B595006A04019BB19E
:1036E000002A016A9BB5012A0050011801E18ED021
:1036F000006A04019BB1002A0050010BE844E84431
:10370000F46E9B51FB0BF4109B6FA951AD5D006EE5
:10371000AA51AE59016EAB51AF59026EAC51B059BE
:10372000036E0050AD6F0150AE6F0250AF6F03508B
:10373000B06F04017B510401A96F04017C510401A5
:10374000AA6F04017D510401AB6F04017E51040195
:10375000AC6F04017B5100267C5101227D51022275
:103760007E51032200500401AD6F0150AE6F025034
:10377000AF6F0350B06F006A82B6002A0050010B91
:10378000E844F46E9B51FD0BF4109B6F006A9BB1F3
:10379000002A016A9BB3012A0150D880E866D890BC
:1037A000016A01360150001A005019E0B1C400F05E
:1037B000B2C401F0B3C402F0B4C403F0002A04E3BD
:1037C000012A02E3024A032A00500401B16F0150AA
:1037D000B26F0250B36F0350B46FB58317D0B1C44A
:1037E00000F0B2C401F0B3C402F0B4C403F0FF0EA1
:1037F000002601220222032200500401B16F015071
:10380000B26F0250B36F0350B46FB593006A82B8C1
:10381000002A0050010BF46E03010851FE0BF41056
:10382000086F006A81B2002A0050010A08E1030112
:103830001E6B1F6B206B216B2281228502D003013E
:103840002295006A030108B1002A016A08B5012A1D
:103850000050011801E18ED0006A030108B1002A6E
:103860000050010BE844E844F46E0851FB0BF410DF
:10387000086F16511A5D006E17511B59016E1851D1
:103880001C59026E19511D59036E00501A6F0150D8
:103890001B6F02501C6F03501D6F04017B5103010D
:1038A000166F04017C510301176F04017D51030160
:1038B000186F04017E510301196F04017B5100262A
:1038C0007C5101227D5102227E51032200500301CE
:1038D0001A6F01501B6F02501C6F03501D6F006A5E
:1038E00082BA002A0050010BE844F46E0851FD0B27
:1038F000F410086F006A08B1002A016A08B3012AAF
:103900000150D880E866D890016A01360150001A4B
:10391000005019E01EC300F01FC301F020C302F0E5
:1039200021C303F0002A04E3012A02E3024A032A26
:10393000005003011E6F01501F6F0250206F035093
:10394000216F228317D01EC300F01FC301F020C3D4
:1039500002F021C303F0FF0E0026012202220322FF
:10396000005003011E6F01501F6F0250206F035063
:10397000216F229305016B3F01D06C2BCF68EB0EBA
:10398000CE6E9E90E4CF03F0E4CF02F0E4CF01F0DE
:10399000E4CF00F01200434D5020256C6420256CCC
:1039A000642025640A00430025630000800EE56E54
:1039B000030EE56E950EE56E8DEC30F0030EE126FC
:1039C000800EE56E030EE56E750EE56E8DEC30F043
:1039D000030EE126800EE56E030EE56E970EE56E92
:1039E0008DEC30F0030EE126800EE56E030EE56EE1
:1039F000770EE56E8DEC30F0030EE126800EE56E5D
:103A0000030EE56E990EE56E8DEC30F0030EE126A7
:103A1000800EE56E030EE56E790EE56E8DEC30F0EE
:103A2000030EE126800EE56E030EE56E9B0EE56E3D
:103A30008DEC30F0030EE126800EE56E030EE56E90
:103A40007B0EE56E8DEC30F0030EE126800EE56E08
:103A5000030EE56E9D0EE56E8DEC30F0030EE12653
:103A6000800EE56E030EE56E7D0EE56E8DEC30F09A
:103A7000030EE126800EE56E030EE56E9F0EE56EE9
:103A80008DEC30F0030EE126800EE56E030EE56E40
:103A90007F0EE56E8DEC30F0030EE126800EE56EB4
:103AA000030EE56EA10EE56E8DEC30F0030EE126FF
:103AB000800EE56E030EE56E810EE56E8DEC30F046
:103AC000030EE126800EE56E030EE56EA30EE56E95
:103AD0008DEC30F0030EE126800EE56E030EE56EF0
:103AE000830EE56E8DEC30F0030EE126800EE56E60
:103AF000030EE56EA50EE56E8DEC30F0030EE126AB
:103B0000800EE56E030EE56E850EE56E8DEC30F0F1
:103B1000030EE126800EE56E030EE56EA70EE56E40
:103B20008DEC30F0030EE126800EE56E030EE56E9F
:103B3000870EE56E8DEC30F0030EE126800EE56E0B
:103B4000030EE56EA90EE56E8DEC30F0030EE12656
:103B5000800EE56E030EE56E890EE56E8DEC30F09D
:103B6000030EE126800EE56E030EE56EAB0EE56EEC
:103B70008DEC30F0030EE126800EE56E030EE56E4F
:103B80008B0EE56E8DEC30F0030EE126800EE56EB7
:103B9000030EE56EAD0EE56E8DEC30F0030EE12602
:103BA000800EE56E030EE56E8D0EE56E8DEC30F049
:103BB000030EE126800EE56E030EE56EAF0EE56E98
:103BC0008DEC30F0030EE126800EE56E030EE56EFF
:103BD0008F0EE56E8DEC30F0030EE126800EE56E63
:103BE000030EE56EB10EE56E8DEC30F0030EE126AE
:103BF000800EE56E030EE56E910EE56E8DEC30F0F5
:103C0000030EE126800EE56E030EE56EB30EE56E43
:103C10008DEC30F0030EE126800EE56E030EE56EAE
:103C2000930EE56E8DEC30F0030EE1261200D9CF35
:103C3000E5FFE1CFD9FF00C0E5FF01C0E5FF02C00D
:103C4000E5FF03C0E5FF04C0E5FF05C0E5FF06C0D2
:103C5000E5FF07C0E5FF08C0E5FF020EDBCF00F07F
:103C6000030EDBCF01F0040EDBCF02F0036A046A1F
:103C70009CEC35F0056EFE0A01E075D03BEC30F0AF
:103C80009CEC35F0066E040E065CD8B05AD0FA6A89
:103C9000FB6A0634FA36E834FA36FC0BAC0FE56EF4
:103CA0003C0EFA22000EFB22E450F96E5EEF1EF08D
:103CB0006AEF1EF07DEF1EF090EF1EF000C0E9FFEE
:103CC00001C0F3FF02509CEC38F0076E07C003F010
:103CD000046A37D00050010F076E000E0120086EF5
:103CE000000E022007C0E9FF08C0F3FF9CEC38F08B
:103CF000076E07C003F0046A24D00050020F076E5D
:103D0000000E0120086E000E022007C0E9FF08C067
:103D1000F3FF9CEC38F0076E07C003F0046A11D083
:103D200000500F0F076E000E0120086E000E0220DB
:103D300007C0E9FF08C0F3FF00EC38F0036EF3CFD3
:103D400004F00450E56E0350E56EE56A0650E56E3A
:103D5000000EE56E4B0EE56E800EE56ECDEC32F09A
:103D6000070EE1268DD0040E055CD8B089D0FA6A22
:103D7000FB6A0534FA36E834FA36FC0B8C0FE56E34
:103D80003D0EFA22000EFB22E450F96ECEEF1EF03B
:103D9000DBEF1EF006EF1FF01CEF1FF09CEC35F080
:103DA000036E03C0E5FF00C0E9FF01C0F3FF02504E
:103DB00014EC39F065D00050010F036E000E0120A5
:103DC000046E000E0220056E9CEC35F0066E06C0F7
:103DD000E5FF03C0E9FF04C0F3FF055014EC39F020
:103DE0000650D8A44DD00050030F036E000E0120E2
:103DF000046E000E0220E56AF46AF66AF76A03C0F0
:103E0000E9FF04C0F3FF8BEC38F03AD00050020F0A
:103E1000036E000E0120046E000E0220056E9CEC65
:103E200035F0066E06C0E5FF03C0E9FF04C0F3FFEE
:103E3000055014EC39F024D00F0E0026000E01229C
:103E400002229CEC35F0066E056AE56A06C0F4FFB6
:103E500000C0E9FF01C0F3FF0250E6EC38F09CEC33
:103E600035F0046A05260450062205C0E5FF06C0A9
:103E7000F4FF00C0E9FF01C0F3FF0250E6EC38F0A8
:103E8000E4CF08F0E4CF07F0E4CF06F0E4CF05F08C
:103E9000E4CF04F0E4CF03F0E4CF02F0E4CF01F08C
:103EA000E4CF00F0E4CFD9FF1200D9CFE5FFE1CF96
:103EB000D9FF00C0E5FF01C0E5FF02C0E5FF03C078
:103EC000E5FF04C0E5FF05C0E5FF06C0E5FF07C04C
:103ED000E5FF020EDBCF00F0030EDBCF01F0040E96
:103EE000DBCF02F0050EDBCF03F0060EDBCF04F0D4
:103EF000070EDBCF05F0080EDBCF06F0090EDBCF97
:103F000007F0005005014F6F0150506F0250516F84
:103F10000350526F04500501536F0550546F065003
:103F2000556F0750566F05014F5105015503F4CFEA
:103F300001F0F3CF00F000500501596F01505A6FA6
:103F400005014F5105015303F4CF01F0F3CF00F009
:103F500000500501576F0150586F0501525105017E
:103F60005303F3CF00F005015A51002600505A6F59
:103F70000501515105015403F3CF01F00150002612
:103F8000005005015A6F0501515105015303F4CF4B
:103F900001F0F3CF00F00501595100265A510122DA
:103FA0000050596F01505A6F0501505105015403DB
:103FB000F4CF03F0F3CF02F00250002603500122A9
:103FC00000500501596F01505A6F0501505105010C
:103FD0005503F3CF00F0005005015E6F050150510D
:103FE00005015303F4CF01F0F3CF00F000500501B9
:103FF0005C6F01505D6F05014F5105015603F3CF12
:1040000000F000500501626F05014F510501540396
:10401000F4CF01F0F3CF00F000500501606F0150C4
:10402000616F05015B6B05015F6B05015B5105016C
:104030005725006E05015C5105015821016E0501EF
:104040005D5105015921026E05015E5105015A219C
:10405000036E0050576F0150586F0250596F035054
:104060005A6F05015F5105015725006E050160512A
:1040700005015821016E0501615105015921026EAA
:104080000501625105015A21036E03C0E9FF02C018
:10409000F4FF01C0F3FF0050E4CF07F0E4CF06F0D7
:1040A000E4CF05F0E4CF04F0E4CF03F0E4CF02F076
:1040B000E4CF01F0E4CF00F0E4CFD9FF120000C05C
:1040C000E5FF01C0E5FF04014251D8B4F5D0A3A833
:1040D0001DD0A4A81BD0050187510501841905E155
:1040E000CAEC38F00501846BE7D0000E0501872586
:1040F000006E016A040E012200C0E9FF01C0EAFF60
:10410000EFCF80F5872B80C573FFD6D0A4AAD4D07B
:1041100071A205D005018581CAEC38F0CDD071A41B
:1041200005D005018583CAEC38F0C6D071A03ED019
:1041300074CF80F5800E040143110501801904E15C
:10414000050185897196B8D00501805104E0805140
:104150000401431927E105018599719605018051F4
:1041600003E00501859702D00501858780C589F5A3
:1041700082C58AF50501820505018B6F600E050178
:104180008A25006E016A000E012200C0E9FF01C00D
:10419000EAFF80C5EFFF8A2B8A51800A02E1050100
:1041A0008A6B8AD005018599718686D074CF80F597
:1041B000050185A919D0800E04014311050180195C
:1041C00011E1929AA39A71980501845104E1736AEE
:1041D000CAEC38F007D000C473FF010E0501876FE9
:1041E000A3886AD0718668D00501805105018927AE
:1041F00005018A5105018B191BE1050189510CE16B
:104200008AC582F5050185B712D0929AA39A719852
:10421000736ACAEC38F00BD00501858585B707D0E5
:10422000929AA39A7198010E736ECAEC38F044D03A
:1042300005018A510501831908E105018351050132
:10424000821903E0CAEC38F037D082C500F0016A69
:10425000004A012AE56A800EE56E0150E56E0050C5
:10426000E56E15EC2CF0006E040EE1260050050101
:10427000816F05018A190CE11F0E050180150501EA
:104280008B6F8B2B8B2B0501825105018B278B9F0D
:104290008AC500F005018A2B016A600E0026000E17
:1042A000012200C0E9FF01C0EAFF80C5EFFF8A518B
:1042B000800A02E105018A6BE4CF01F0E4CF00F04F
:1042C000120000C0E5FF01C0E5FF02C0E5FF03C02A
:1042D000E5FF04C0E5FF05C0E5FF06C0E5FF07C038
:1042E000E5FF08C0E5FF09C0E5FF0AC0E5FF006A79
:1042F000016A040E015CD8B0B3D0100E0401592538
:10430000026E036A050E032202C0E9FF03C0EAFF42
:10431000EFCF02F00250FF0A01E19BD004015939AE
:10432000E8441F0B026E7B0E0224036E046A050E26
:10433000042203C0E9FF04C0EAFFEFCF03F0070E39
:104340005915046E010E056E000E066E045006E04F
:10435000E86CD89005360636010FFCE3076A055075
:1043600003160650071603500710D880E866D89049
:10437000036A03360350D880E866D890036A033690
:10438000076A790E0226050E072202C0E9FF07C060
:10439000EAFFEFCF08F008C009F00A6A09500516D5
:1043A0000A50061605500610D880E866D890056AAF
:1043B00005360550D880E866D890056A0536035062
:1043C000051801E146D0035012E0010E056E0450BD
:1043D00005E0E86CD8900536010FFDE305500812A2
:1043E00002C0E9FF07C0EAFF08C0EFFF17D002C014
:1043F000E9FF07C0EAFFEFCF05F0010E066E04509B
:1044000005E0E86CD8900636010FFDE3061C0516A2
:1044100002C0E9FF07C0EAFF05C0EFFF035003E158
:10442000036A032A01D0036A59C404F0E56A035001
:10443000E56EE56A0450E56E000EE56E640EE56E0D
:10444000020EE56ECDEC32F0070EE126012A01C026
:1044500000F00401592B100E595DD8A04AD7596BB2
:104460000050E4CF0AF0E4CF09F0E4CF08F0E4CF45
:1044700007F0E4CF06F0E4CF05F0E4CF04F0E4CF9A
:1044800003F0E4CF02F0E4CF01F0E4CF00F012003B
:10449000D9CFE5FFE1CFD9FF00C0E5FF01C0E5FFBF
:1044A00002C0E5FF03C0E5FF04C0E5FF05C0E5FF6E
:1044B00006C0E5FF07C0E5FF08C0E5FF09C0E5FF4E
:1044C0000AC0E5FF0BC0E5FF0CC0E5FF0DC0E5FF2E
:1044D0000EC0E5FF0FC0E5FF020EDBCF00F0030EBC
:1044E000DBCF01F0040EDBCF02F0050EDBCF03F0D3
:1044F000060EDBCF04F0070EDBCF05F0080EDBCF96
:1045000006F0200E076E086A06C009F00A6A0B6AF8
:104510000C6AE56AE56AE56A0950E56E0350E56EE6
:104520000250E56E0150E56E0050E56E93EC24F00C
:104530000D6E080EE126300E0D263A0E0D5C05E3D9
:104540000D500E6E270E0E240D6EFF0E072608224C
:10455000D50E07240E6E030E08200F6E0EC0E9FF65
:104560000FC0EAFF0DC0EFFF0C50E56E0B50E56E7B
:104570000A50E56E0950E56E0350E56E0250E56E97
:104580000150E56E0050E56EC4EC25F0006EF3CFEF
:1045900001F0F4CF02F0E9CF03F0080EE12600505D
:1045A000011002100310D8A4AFD707C000F008C054
:1045B00001F004C002F005C003F000C004F001C027
:1045C00005F0004A012AD50E0426030E052204C078
:1045D000E9FF05C0EAFFEFCF04F002C0E9FF03C026
:1045E000EAFF04C0EFFF024A032A000E015C02E169
:1045F000200E005CE2E302C0E9FF03C0EAFF000E08
:10460000EF6AE4CF0FF0E4CF0EF0E4CF0DF0E4CF8B
:104610000CF0E4CF0BF0E4CF0AF0E4CF09F0E4CFE4
:1046200008F0E4CF07F0E4CF06F0E4CF05F0E4CFE4
:1046300004F0E4CF03F0E4CF02F0E4CF01F0E4CFE4
:1046400000F0E4CFD9FF1200D9CFE5FFE1CFD9FFC9
:1046500000C0E5FF01C0E5FF02C0E5FF03C0E5FFC4
:1046600004C0E5FF05C0E5FF06C0E5FF07C0E5FFA4
:1046700008C0E5FF09C0E5FF0AC0E5FF0BC0E5FF84
:104680000CC0E5FF0DC0E5FF020EDBCF00F0030E0E
:10469000DBCF01F0040EDBCF02F0050EDBCF03F021
:1046A000060EDBCF04F0070EDBCF05F0080EDBCFE4
:1046B00006F0090EDBCF07F0D88003AED890086A69
:1046C000083608500FE0031C0C6E021C0B6E011C18
:1046D0000A6E001C096E092A0DE10A2A0BE10B4A39
:1046E0000C2A08D000C009F001C00AF002C00BF08B
:1046F00003C00CF0D88007AED890006A0036005096
:104700000FE0071C0D6E061C036E051C026E041CD8
:10471000016E012A0DE1022A0BE1034A0D2A08D09D
:1047200004C001F005C002F006C003F007C00DF0A0
:104730000D50E56E0350E56E0250E56E0150E56EDA
:104740000C50E56E0B50E56E0A50E56E0950E56EB3
:10475000C4EC25F0016EF3CF02F0F4CF03F0E9CF03
:1047600004F0080EE1260050081A085016E0041C58
:10477000076E031C066E021C056E011C006E002AEB
:1047800004E1052A02E1064A072A07C0E9FF06C03C
:10479000F4FF05C0F3FF005007D004C0E9FF03C0D9
:1047A000F4FF02C0F3FF0150E4CF0DF0E4CF0CF0B2
:1047B000E4CF0BF0E4CF0AF0E4CF09F0E4CF08F047
:1047C000E4CF07F0E4CF06F0E4CF05F0E4CF04F047
:1047D000E4CF03F0E4CF02F0E4CF01F0E4CF00F047
:1047E000E4CFD9FF120000C0E5FF01C0E5FF02C021
:1047F000E5FF03C0E5FF04C0E5FF05C0E5FF006A73
:10480000100E0024016E026A050E022201C0E9FFAB
:1048100002C0EAFFEFCF01F00150FF0A01E171D0C1
:1048200001380F0B026E036A800E02260F0E032260
:1048300002C0E9FF03C0EAFFEFCF02F0070E011646
:10484000010E036E000E046E015006E0E86CD89075
:1048500003360436010FFCE3056A025003160550C7
:10486000041603500410D880E866D890036A033613
:10487000035024E10038E8441F0B016E026A7B0EEE
:104880000126050E022201C0E9FF02C0EAFFEFCFB8
:1048900003F0070E0014046E010E056E045005E0CF
:1048A000E86CD8900536010FFDE30550031201C0F6
:1048B000E9FF02C0EAFF03C0EFFF23D00038E8445D
:1048C0001F0B016E026A7B0E0126050E022201C03B
:1048D000E9FF02C0EAFFEFCF03F0070E0014046EF9
:1048E000010E056E045005E0E86CD8900536010F06
:1048F000FDE3051C031601C0E9FF02C0EAFF03C087
:10490000EFFF002A100E005CD8A07AD7E4CF05F0A4
:10491000E4CF04F0E4CF03F0E4CF02F0E4CF01F001
:10492000E4CF00F01200D9CFE5FFE1CFD9FF00C0FE
:10493000E5FF01C0E5FF02C0E5FF03C0E5FF04C0DD
:10494000E5FF05C0E5FF06C0E5FF07C0E5FF08C0BD
:10495000E5FF09C0E5FF0AC0E5FF020EDBCF00F06E
:10496000030EDBCF01F0040EDBCF02F0050EDBCF30
:1049700003F0060EDBCF04F0070EDBCF05F0080EC8
:10498000DBCF06F0090EDBCF07F0086A04500510F4
:104990000610071005E1E968F468F368E86847D095
:1049A000096A0750800BE8440A6E0A501BE1045064
:1049B00004260536063607360750035C08E1065024
:1049C000025C05E10550015C02E10450005C06E276
:1049D000D890073206320532043204D0092A09C0C1
:1049E00008F0DFD70750035C08E10650025C05E1E0
:1049F0000550015C02E10450005C08E30450005ED5
:104A00000550015A0650025A0750035AD8900732EF
:104A100006320532043208C009F008060950E2E106
:104A200003C0E9FF02C0F4FF01C0F3FF0050E4CF70
:104A30000AF0E4CF09F0E4CF08F0E4CF07F0E4CFC8
:104A400006F0E4CF05F0E4CF04F0E4CF03F0E4CFC8
:104A500002F0E4CF01F0E4CF00F0E4CFD9FF120080
:104A6000D9CFE5FFE1CFD9FF00C0E5FF01C0E5FFE9
:104A700002C0E5FF03C0E5FF04C0E5FF05C0E5FF98
:104A800006C0E5FF07C0E5FF020EDBCF00F0030E16
:104A9000DBCF01F0040EDBCF02F000500B0F036EF2
:104AA000000E0120046E000E0220E56AF46AF66A28
:104AB000F76A03C0E9FF04C0F3FF8BEC38F0005045
:104AC000070F036E000E0120046E000E0220056E1B
:104AD0000050030F066E000E0120076E000E02202C
:104AE000E56AF46AF66AF76A06C0E9FF07C0F3FFF1
:104AF0008BEC38F0E56AF46AF66AF76A03C0E9FFFE
:104B000004C0F3FF05508BEC38F00050010F036E2A
:104B1000000E0120046E000E0220056E0050020FF0
:104B2000066E000E0120076E000E0220E56A06C028
:104B3000E9FF07C0F3FF14EC39F0E56A03C0E9FFB1
:104B400004C0F3FF055014EC39F0E56A00C0E9FF3A
:104B500001C0F3FF025014EC39F0E4CF07F0E4CFCA
:104B600006F0E4CF05F0E4CF04F0E4CF03F0E4CFA7
:104B700002F0E4CF01F0E4CF00F0E4CFD9FF12005F
:104B800025642025640A0000D9CFE5FFE1CFD9FFD5
:104B900000C0E5FF01C0E5FF02C0E5FF03C0E5FF7F
:104BA00004C0E5FF05C0E5FF06C0E5FF07C0E5FF5F
:104BB00008C0E5FF09C0E5FF0AC0E5FF0BC0E5FF3F
:104BC0000CC0E5FF0DC0E5FF020EDBCF00F0030EC9
:104BD000DBCF01F0040EDBCF02F0050EDBCF03F0DC
:104BE000060EDBCF04F0070EDBCF05F0080EDBCF9F
:104BF00006F0090EDBCF07F0086A096A0A6A0B6A39
:104C0000200E0C6E0350800BE8440D6E0050002601
:104C10000136023603360850082609360A360B36A6
:104C20000D50D8A4088007500B5C08E106500A5CC0
:104C300005E10550095C02E10450085C09E30450F9
:104C4000085E0550095A06500A5A07500B5A008050
:104C50000C040D6E0DC00CF00D50D4E103C0E9FF43
:104C600002C0F4FF01C0F3FF0050E4CF0DF0E4CF29
:104C70000CF0E4CF0BF0E4CF0AF0E4CF09F0E4CF7E
:104C800008F0E4CF07F0E4CF06F0E4CF05F0E4CF7E
:104C900004F0E4CF03F0E4CF02F0E4CF01F0E4CF7E
:104CA00000F0E4CFD9FF120000C0E5FF01C0E5FF2E
:104CB00003C0E5FF04C0E5FF05C0E5FF06C0E5FF52
:104CC00007C0E5FF08C0E5FF09C0E5FF0AC0E5FF32
:104CD0000BC0E5FF6DC500F06EC501F005016D3F2D
:104CE00001D06E2B0050E56EBCEC38F0E652076E3A
:104CF000046A056A066A6DC500F06EC501F005011B
:104D00006D3F01D06E2B0050E56EBCEC38F0E652E2
:104D10000B6A0A6E086A0850041205120A5006123D
:104D20000B5007126DC500F06EC501F005016D3F17
:104D300001D06E2B0050E56EBCEC38F0E652036EED
:104D4000006A03C001F0E86A03BEFF0E086E096E38
:104D500000500412015005120850061209500712A3
:104D60006DC500F06EC501F005016D3F01D06E2BE1
:104D70000050E56EBCEC38F0E652016A04120150B6
:104D800005120612071207C0E9FF06C0F4FF05C0AE
:104D9000F3FF0450E4CF0BF0E4CF0AF0E4CF09F0C6
:104DA000E4CF08F0E4CF07F0E4CF06F0E4CF05F05D
:104DB000E4CF04F0E4CF03F0E4CF01F0E4CF00F05F
:104DC000120000C0E5FF01C0E5FF02C0E5FF03C01F
:104DD000E5FF04C0E5FF050183510501821901E1EA
:104DE0005FD083C500F0002A009E600E0024016E93
:104DF000026A000E022201C0E9FF02C0EAFFEFCF03
:104E00008DF51F0E05018D1783C58CF58D5105019C
:104E10008C278C2B8C2B8C9F9CEC35F0016E0150D9
:104E200003E1016A012A01D0016A9CEC35F0050119
:104E30008D6F800E8D15026E1F0E8D15036E03C0D3
:104E400004F003C08DF5045003E182C583F53BD027
:104E500001501BE0025022E09CEC35F0006E050191
:104E60008D070050420A1AE000504E0A03E14BEC55
:104E700032F014D00050460A03E1FEEC38F00ED0B8
:104E80000050490A0BE1FF0009D083C58EF502509E
:104E900003E03EEC2FF002D0DDEC34F08CC583F55E
:104EA00004013F510401401906E00501845103E16A
:104EB00011EC29F008D092BA06D00501845103E123
:104EC00072B2CAEC38F0E4CF04F0E4CF03F0E4CFE0
:104ED00002F0E4CF01F0E4CF00F01200D9CFE5FFFB
:104EE000E1CFD9FF00C0E5FF01C0E5FF02C0E5FF4B
:104EF00003C0E5FF04C0E5FF05C0E5FF06C0E5FF10
:104F000007C0E5FF08C0E5FF0BC0E5FF0CC0E5FFEB
:104F10000DC0E5FF020EDBCF00F0030EDBCF01F08A
:104F2000040EDBCF02F0050EDBCF03F0060EDBCF65
:104F300004F003C0E5FF04C0F4FF00C0E9FF01C0B6
:104F4000F3FF0250E6EC38F00050020F056E000E41
:104F50000120066E000E0220076EE86A04BEFF0EF6
:104F6000086E04500C6E0C2608340D6ED8900C366A
:104F70000D360344E844FC0B0B6E0350E844E84450
:104F8000030B0C12E56A0BC0F4FF0CC0F6FF0DC05A
:104F9000F7FF05C0E9FF06C0F3FF07508BEC38F0C0
:104FA000080E0026000E01220222E56AF46AF66A63
:104FB000F76A00C0E9FF01C0F3FF02508BEC38F044
:104FC000E4CF0DF0E4CF0CF0E4CF0BF0E4CF08F029
:104FD000E4CF07F0E4CF06F0E4CF05F0E4CF04F02F
:104FE000E4CF03F0E4CF02F0E4CF01F0E4CF00F02F
:104FF000E4CFD9FF1200D9CFE5FFE1CFD9FF00C040
:10500000E5FF01C0E5FF02C0E5FF03C0E5FF04C006
:10501000E5FF05C0E5FF06C0E5FF07C0E5FF020E9E
:10502000DBCF00F0030EDBCF01F0040EDBCF02F08C
:10503000050EDBCF03F002C006F00650046E800AB6
:1050400033E100C0E9FF01C0F3FF025041EC37F04B
:10505000056EF3CF06F0F4CF07F003C0E5FF05C0FF
:10506000E9FF06C0F3FF075014EC39F000C0E9FF78
:1050700001C0F3FF025041EC37F0056EF3CF06F0AC
:10508000F4CF07F0052A02E3064A072A05C0E5FF28
:1050900006C0F4FF07C0F6FF00C0E9FF01C0F3FF40
:1050A0000250ADEC38F020D004C000F000AA1CD0B3
:1050B000007A0050046E04E1035055EC39F014D02E
:1050C0000450010A04E1035002EC00F00DD004503A
:1050D0000F0A04E1035010EC35F006D004500E0A1C
:1050E00003E1035065EC39F0E4CF07F0E4CF06F0BC
:1050F000E4CF05F0E4CF04F0E4CF03F0E4CF02F016
:10510000E4CF01F0E4CF00F0E4CFD9FF1200D9CF13
:10511000E5FFE1CFD9FF00C0E5FF01C0E5FF02C018
:10512000E5FF03C0E5FF04C0E5FF05C0E5FF06C0DD
:10513000E5FF07C0E5FF08C0E5FF09C0E5FF0AC0BD
:10514000E5FF020EDBCF00F0030EDBCF01F0040E13
:10515000DBCF02F0050EDBCF03F0060EDBCF04F051
:10516000070EDBCF05F00038E8441F0B066E076A18
:10517000770E0626050E072206C0E9FF07C0EAFFE4
:10518000EFCF08F0070E0014096E010E0A6E0950E9
:1051900005E0E86CD8900A36010FFDE30A500812CA
:1051A00006C0E9FF07C0EAFF08C0EFFF000E0024B9
:1051B000066E076A050E072206C0E9FF07C0EAFF70
:1051C00001C0EFFF016AE80E0026040E0122800EE6
:1051D000025E070E02160238F00B036E070E05166C
:1051E0000550032600C0E9FF01C0EAFF03C0EFFF3E
:1051F000E4CF0AF0E4CF09F0E4CF08F0E4CF07F001
:10520000E4CF06F0E4CF05F0E4CF04F0E4CF03F000
:10521000E4CF02F0E4CF01F0E4CF00F0E4CFD9FF17
:10522000120000C0E5FF01C0E5FF02C0E5FF03C0BA
:10523000E5FF72A276D0CAEC36F0006E005005E1B0
:105240000401406B04013F6B6CD040C401F000507E
:105250000126CAEC36F0026E00060250230A1FE156
:10526000010E005CD8A05BD0CAEC36F0026E690A71
:1052700003E141EC35F053D00250720A03E1CAEC6D
:1052800038F04DD00250730A01E049D0928A7186FD
:10529000A38AA398745074507198718840D00250BA
:1052A000430A05E00250420A01E039D001D0008EE5
:1052B00000C086F500500401006F010E0501876FE4
:1052C00004014051011814E0CAEC36F0026E0501E9
:1052D0008627000E05018725006E036A040E03224F
:1052E00000C0E9FF03C0EAFF02C0EFFF872BE8D749
:1052F000000E05018725006E026A040E02220501D8
:10530000861D036E032A00C0E9FF02C0EAFF03C046
:10531000EFFF0501872B87C584F505017E6B01C072
:1053200040F4E4CF03F0E4CF02F0E4CF01F0E4CFA7
:1053300000F01200D9CFE5FFE1CFD9FF00C0E5FFB3
:1053400001C0E5FF02C0E5FF03C0E5FF04C0E5FFC3
:1053500005C0E5FF06C0E5FF020EDBCF00F0030E3F
:10536000DBCF01F0040EDBCF02F0050EDBCF03F044
:1053700003C004F0056A0350D8B44FD000C0E9FF61
:1053800001C0F3FF02509CEC38F0066E430A03E1C3
:10539000010E056E038E0406002A02E3014A022A6A
:1053A000929AA39A7198A398A4A8FED77280736A60
:1053B0000000A4A8FED7729003C073FF0000A4A849
:1053C000FED7055004E0420E736E032604D0620E31
:1053D000736E620E0326045015E00000A4A8FED7E9
:1053E00000C0E9FF01C0F3FF02509CEC38F0056EED
:1053F00005C073FF055003260406002A02E3014A94
:10540000022AE9D70000A4A8FED7031C736E732AF2
:105410000000A4A8FED7CAEC38F0E4CF06F0E4CF31
:1054200005F0E4CF04F0E4CF03F0E4CF02F0E4CFE2
:1054300001F0E4CF00F0E4CFD9FF120000C0E5FF97
:1054400001C0E5FF02C0E5FF03C0E5FF04C0E5FFC2
:10545000006A770E0024016E026A050E022201C066
:10546000E9FF02C0EAFFEF6A002A020E005CF1E3E6
:10547000006A0050020DF450026EF3CF01F0E00E0E
:105480000124036E000E0220046E03C0E9FF04C075
:10549000EAFFEE6AEF6A5B0E0124036E040E02203F
:1054A000046E03C0E9FF04C0EAFFEE6AEF6A550E1E
:1054B0000124036E030E0220046E03C0E9FF04C042
:1054C000EAFFEE6AEF6A750E0124036E030E0220F6
:1054D000046E03C0E9FF04C0EAFFEE6AEF6A950EAE
:1054E0000126030E022201C0E9FF02C0EAFFEE68B6
:1054F0007F0EEF6EE80E0024016E026A040E022297
:1055000001C0E9FF02C0EAFFEF68002A100E005C4C
:10551000D8A0AFD7AF0EC06EC16A010EC26EC282F4
:10552000E4CF04F0E4CF03F0E4CF02F0E4CF01F0E5
:10553000E4CF00F012004320412025642025640AB6
:105540000000D9CFE5FFE1CFD9FF00C0E5FF01C0E2
:10555000E5FF02C0E5FF03C0E5FF04C0E5FF05C0AD
:10556000E5FF06C0E5FF07C0E5FF08C0E5FF09C08D
:10557000E5FF0AC0E5FF0BC0E5FF0CC0E5FF020E2A
:10558000DBCF00F0030EDBCF01F0040EDBCF02F027
:10559000050EDBCF03F0060EDBCF04F0070EDBCFEA
:1055A00005F0080EDBCF06F0090EDBCF07F0025046
:1055B0000A6E0150096E0050086E06C00BF007C05D
:1055C0000CF0FF0E062607220B500C101AE003C049
:1055D000E9FF04C0F3FF05509CEC38F00B6E032A82
:1055E00002E3044A052A0BC0E5FF08C0E9FF09C031
:1055F000F3FF0A5014EC39F0082ADFE3094A0A2ABB
:10560000DCD702C0F4FF01C0F3FF0050E4CF0CF080
:10561000E4CF0BF0E4CF0AF0E4CF09F0E4CF08F0D8
:10562000E4CF07F0E4CF06F0E4CF05F0E4CF04F0D8
:10563000E4CF03F0E4CF02F0E4CF01F0E4CF00F0D8
:10564000E4CFD9FF1200D9CFE5FFE1CFD9FF00C0E9
:10565000E5FF01C0E5FF02C0E5FF03C0E5FF04C0B0
:10566000E5FF05C0E5FF06C0E5FF07C0E5FF020E48
:10567000DBCF00F0030EDBCF01F0040EDBCF02F036
:10568000050EDBCF03F040C441F404013F51040197
:10569000415F410703C004F0056A030E0426D8B039
:1056A000052A41C406F0076A0750800FF36E0550C3
:1056B000800FF35C02E10450065C02E2E8682BD044
:1056C000020E035C02E2E86A26D003060350E56E90
:1056D00089EC33F0E652046A0350045C14E204508F
:1056E0000024056EE86A0120066EE86A022005C003
:1056F000E9FF06C0F3FF9CEC38F0042AE56E89EC64
:1057000033F0E652E9D740C441F404013F510401AB
:10571000415F4107E86AE4CF07F0E4CF06F0E4CF49
:1057200005F0E4CF04F0E4CF03F0E4CF02F0E4CFDF
:1057300001F0E4CF00F0E4CFD9FF1200D9CFE5FFAC
:10574000E1CFD9FF00C0E5FF01C0E5FF02C0E5FFE2
:1057500003C0E5FF04C0E5FF05C0E5FF020EDBCF97
:1057600000F0030EDBCF01F0040EDBCF02F000509F
:10577000020DF450036EF3CF00F05B0E0024046EB4
:10578000040E0320056E04C0E9FF05C0EAFF01C056
:10579000EEFF02C0EFFF550E0024046E030E03203F
:1057A000056E04C0E9FF05C0EAFFEECF04F0EFCFBD
:1057B00005F00150045C016E02500558026EB50EF2
:1057C0000026030E032200C0E9FF03C0EAFF01C068
:1057D000EEFF02C0EFFFD88002AED89004E3021EB5
:1057E000016CD8B4022A0250800F800F02E1030E30
:1057F000015C02E2016A026A0150021007E100C086
:10580000E9FF03C0EAFF000EEE6AEF6AE4CF05F09D
:10581000E4CF04F0E4CF03F0E4CF02F0E4CF01F0F2
:10582000E4CF00F0E4CFD9FF1200D9CFE5FFE1CFFC
:10583000D9FF00C0E5FF01C0E5FF02C0E5FF03C0DE
:10584000E5FF04C0E5FF05C0E5FF06C0E5FF020E69
:10585000DBCF00F0030EDBCF01F0040EDBCF02F054
:10586000050EDBCF03F0D88001AED890046A043671
:10587000045007E0011C066E001C056E054A062A4E
:1058800004D000C005F001C006F0D88003AED89067
:1058900007E3031C016E021C006E004A012A04D0BB
:1058A00002C000F003C001F00150E56E0050E56E4B
:1058B0000650E56E0550E56EE1EC2EF0006EF3CF7C
:1058C00001F0040EE12604500AE0011C036E001CE6
:1058D000026E024A032A03C0F3FF025003D001C044
:1058E000F3FF0050E4CF06F0E4CF05F0E4CF04F07E
:1058F000E4CF03F0E4CF02F0E4CF01F0E4CF00F016
:10590000E4CFD9FF1200D9CFE5FFE1CFD9FF00C026
:10591000E5FF01C0E5FF02C0E5FF03C0E5FF04C0ED
:10592000E5FF05C0E5FF020EDBCF00F0030EDBCF85
:1059300001F0040EDBCF02F0050EDBCF03F06DC5E6
:1059400004F06EC505F005016D3F01D06E2B0350CC
:10595000E56E0450E56E86EC36F0E652E6526DC513
:1059600004F06EC505F005016D3F01D06E2B0250AD
:10597000056EE56E0450E56E86EC36F0E652E652B2
:105980006DC504F06EC505F005016D3F01D06E2BAD
:105990000150056EE56E0450E56E86EC36F0E65279
:1059A000E6526DC504F06EC505F005016D3F01D0EE
:1059B0006E2B0050E56E0450E56E86EC36F0E65234
:1059C000E652E4CF05F0E4CF04F0E4CF03F0E4CFF7
:1059D00002F0E4CF01F0E4CF00F0E4CFD9FF1200F1
:1059E000D9CFE5FFE1CFD9FF00C0E5FF01C0E5FF5A
:1059F00002C0E5FF03C0E5FF04C0E5FF05C0E5FF09
:105A000006C0E5FF020EDBCF00F0030EDBCF01F096
:105A1000040EDBCF02F005017D5119E154EC26F0B4
:105A2000036EF3CF04F0F4CF05F0E9CF06F003C026
:105A3000E5FF04C0F4FF05C0F6FF06C0F7FF00C095
:105A4000E9FF01C0F3FF02508BEC38F01ED00501D6
:105A50007D51010A1AE100C0E9FF01C0F3FF0250C5
:105A6000AAEC36F0006EF3CF01F0F4CF02F0E9CFEC
:105A700003F00350E56E0250E56E0150E56E0050F4
:105A8000E56E83EC2CF0040EE126E4CF06F0E4CFC3
:105A900005F0E4CF04F0E4CF03F0E4CF02F0E4CF6C
:105AA00001F0E4CF00F0E4CFD9FF1200D9CFE5FF39
:105AB000E1CFD9FF00C0E5FF01C0E5FF02C0E5FF6F
:105AC00003C0E5FF04C0E5FF020EDBCF00F0030ECC
:105AD000DBCF01F0040EDBCF02F00050070F036EA6
